{
  "contractName": "Voting",
  "abi": [
    {
      "inputs": [],
      "stateMutability": "nonpayable",
      "type": "constructor"
    },
    {
      "anonymous": false,
      "inputs": [
        {
          "indexed": true,
          "internalType": "address",
          "name": "previousOwner",
          "type": "address"
        },
        {
          "indexed": true,
          "internalType": "address",
          "name": "newOwner",
          "type": "address"
        }
      ],
      "name": "OwnershipTransferred",
      "type": "event"
    },
    {
      "anonymous": false,
      "inputs": [
        {
          "indexed": false,
          "internalType": "uint256",
          "name": "proposalId",
          "type": "uint256"
        }
      ],
      "name": "ProposalRegistered",
      "type": "event"
    },
    {
      "anonymous": false,
      "inputs": [
        {
          "indexed": false,
          "internalType": "uint256",
          "name": "date",
          "type": "uint256"
        },
        {
          "indexed": false,
          "internalType": "uint256",
          "name": "blockNumber",
          "type": "uint256"
        }
      ],
      "name": "ResetVote",
      "type": "event"
    },
    {
      "anonymous": false,
      "inputs": [
        {
          "indexed": false,
          "internalType": "address",
          "name": "voter",
          "type": "address"
        },
        {
          "indexed": false,
          "internalType": "uint256",
          "name": "proposalId",
          "type": "uint256"
        }
      ],
      "name": "Voted",
      "type": "event"
    },
    {
      "anonymous": false,
      "inputs": [
        {
          "indexed": false,
          "internalType": "address",
          "name": "voterAddress",
          "type": "address"
        }
      ],
      "name": "VoterRegistered",
      "type": "event"
    },
    {
      "anonymous": false,
      "inputs": [
        {
          "indexed": false,
          "internalType": "enum Voting.WorkflowStatus",
          "name": "previousStatus",
          "type": "uint8"
        },
        {
          "indexed": false,
          "internalType": "enum Voting.WorkflowStatus",
          "name": "newStatus",
          "type": "uint8"
        }
      ],
      "name": "WorkflowStatusChange",
      "type": "event"
    },
    {
      "inputs": [],
      "name": "owner",
      "outputs": [
        {
          "internalType": "address",
          "name": "",
          "type": "address"
        }
      ],
      "stateMutability": "view",
      "type": "function",
      "constant": true
    },
    {
      "inputs": [],
      "name": "renounceOwnership",
      "outputs": [],
      "stateMutability": "nonpayable",
      "type": "function"
    },
    {
      "inputs": [
        {
          "internalType": "address",
          "name": "newOwner",
          "type": "address"
        }
      ],
      "name": "transferOwnership",
      "outputs": [],
      "stateMutability": "nonpayable",
      "type": "function"
    },
    {
      "inputs": [],
      "name": "winningProposalID",
      "outputs": [
        {
          "internalType": "uint8",
          "name": "",
          "type": "uint8"
        }
      ],
      "stateMutability": "view",
      "type": "function",
      "constant": true
    },
    {
      "inputs": [],
      "name": "workflowStatus",
      "outputs": [
        {
          "internalType": "enum Voting.WorkflowStatus",
          "name": "",
          "type": "uint8"
        }
      ],
      "stateMutability": "view",
      "type": "function",
      "constant": true
    },
    {
      "inputs": [
        {
          "internalType": "address",
          "name": "_addr",
          "type": "address"
        }
      ],
      "name": "getVoter",
      "outputs": [
        {
          "components": [
            {
              "internalType": "bool",
              "name": "isRegistered",
              "type": "bool"
            },
            {
              "internalType": "bool",
              "name": "hasVoted",
              "type": "bool"
            },
            {
              "internalType": "uint256",
              "name": "votedProposalId",
              "type": "uint256"
            }
          ],
          "internalType": "struct Voting.Voter",
          "name": "",
          "type": "tuple"
        }
      ],
      "stateMutability": "view",
      "type": "function",
      "constant": true
    },
    {
      "inputs": [
        {
          "internalType": "uint256",
          "name": "_id",
          "type": "uint256"
        }
      ],
      "name": "getOneProposal",
      "outputs": [
        {
          "components": [
            {
              "internalType": "string",
              "name": "description",
              "type": "string"
            },
            {
              "internalType": "uint256",
              "name": "voteCount",
              "type": "uint256"
            }
          ],
          "internalType": "struct Voting.Proposal",
          "name": "",
          "type": "tuple"
        }
      ],
      "stateMutability": "view",
      "type": "function",
      "constant": true
    },
    {
      "inputs": [],
      "name": "getProposals",
      "outputs": [
        {
          "components": [
            {
              "internalType": "string",
              "name": "description",
              "type": "string"
            },
            {
              "internalType": "uint256",
              "name": "voteCount",
              "type": "uint256"
            }
          ],
          "internalType": "struct Voting.Proposal[]",
          "name": "",
          "type": "tuple[]"
        }
      ],
      "stateMutability": "view",
      "type": "function",
      "constant": true
    },
    {
      "inputs": [],
      "name": "getVoters",
      "outputs": [
        {
          "internalType": "address[]",
          "name": "",
          "type": "address[]"
        }
      ],
      "stateMutability": "view",
      "type": "function",
      "constant": true
    },
    {
      "inputs": [
        {
          "internalType": "address",
          "name": "_addr",
          "type": "address"
        }
      ],
      "name": "addVoter",
      "outputs": [],
      "stateMutability": "nonpayable",
      "type": "function"
    },
    {
      "inputs": [
        {
          "internalType": "address",
          "name": "_addr",
          "type": "address"
        }
      ],
      "name": "deleteVoter",
      "outputs": [],
      "stateMutability": "nonpayable",
      "type": "function"
    },
    {
      "inputs": [
        {
          "internalType": "string",
          "name": "_desc",
          "type": "string"
        }
      ],
      "name": "addProposal",
      "outputs": [],
      "stateMutability": "nonpayable",
      "type": "function"
    },
    {
      "inputs": [
        {
          "internalType": "uint256",
          "name": "_id",
          "type": "uint256"
        }
      ],
      "name": "setVote",
      "outputs": [],
      "stateMutability": "nonpayable",
      "type": "function"
    },
    {
      "inputs": [],
      "name": "startProposalsRegistering",
      "outputs": [],
      "stateMutability": "nonpayable",
      "type": "function"
    },
    {
      "inputs": [],
      "name": "endProposalsRegistering",
      "outputs": [],
      "stateMutability": "nonpayable",
      "type": "function"
    },
    {
      "inputs": [],
      "name": "startVotingSession",
      "outputs": [],
      "stateMutability": "nonpayable",
      "type": "function"
    },
    {
      "inputs": [],
      "name": "endVotingSession",
      "outputs": [],
      "stateMutability": "nonpayable",
      "type": "function"
    },
    {
      "inputs": [],
      "name": "tallyVotes",
      "outputs": [],
      "stateMutability": "nonpayable",
      "type": "function"
    },
    {
      "inputs": [],
      "name": "resetVote",
      "outputs": [],
      "stateMutability": "nonpayable",
      "type": "function"
    }
  ],
  "bytecode": "0x60806040526032600060156101000a81548160ff021916908360ff1602179055503480156200002d57600080fd5b506200004e620000426200006560201b60201c565b6200006d60201b60201c565b6200005f336200013160201b60201c565b62000619565b600033905090565b60008060009054906101000a900473ffffffffffffffffffffffffffffffffffffffff169050816000806101000a81548173ffffffffffffffffffffffffffffffffffffffff021916908373ffffffffffffffffffffffffffffffffffffffff1602179055508173ffffffffffffffffffffffffffffffffffffffff168173ffffffffffffffffffffffffffffffffffffffff167f8be0079c531659141344cd1fd0a4f28419497f9722a3daafe3b4186f6b6457e060405160405180910390a35050565b620001416200006560201b60201c565b73ffffffffffffffffffffffffffffffffffffffff1662000167620003d260201b60201c565b73ffffffffffffffffffffffffffffffffffffffff1614620001c0576040517f08c379a0000000000000000000000000000000000000000000000000000000008152600401620001b7906200045c565b60405180910390fd5b60006005811115620001d757620001d66200047e565b5b600460009054906101000a900460ff166005811115620001fc57620001fb6200047e565b5b146200023f576040517f08c379a0000000000000000000000000000000000000000000000000000000008152600401620002369062000523565b60405180910390fd5b60011515600360008373ffffffffffffffffffffffffffffffffffffffff1673ffffffffffffffffffffffffffffffffffffffff16815260200190815260200160002060000160009054906101000a900460ff16151503620002d8576040517f08c379a0000000000000000000000000000000000000000000000000000000008152600401620002cf9062000595565b60405180910390fd5b6001600360008373ffffffffffffffffffffffffffffffffffffffff1673ffffffffffffffffffffffffffffffffffffffff16815260200190815260200160002060000160006101000a81548160ff0219169083151502179055506002819080600181540180825580915050600190039060005260206000200160009091909190916101000a81548173ffffffffffffffffffffffffffffffffffffffff021916908373ffffffffffffffffffffffffffffffffffffffff1602179055507fb6be2187d059cc2a55fe29e0e503b566e1e0f8c8780096e185429350acffd3dd81604051620003c79190620005fc565b60405180910390a150565b60008060009054906101000a900473ffffffffffffffffffffffffffffffffffffffff16905090565b600082825260208201905092915050565b7f4f776e61626c653a2063616c6c6572206973206e6f7420746865206f776e6572600082015250565b600062000444602083620003fb565b915062000451826200040c565b602082019050919050565b60006020820190508181036000830152620004778162000435565b9050919050565b7f4e487b7100000000000000000000000000000000000000000000000000000000600052602160045260246000fd5b7f566f7465727320726567697374726174696f6e206973206e6f74206f70656e2060008201527f7965740000000000000000000000000000000000000000000000000000000000602082015250565b60006200050b602383620003fb565b91506200051882620004ad565b604082019050919050565b600060208201905081810360008301526200053e81620004fc565b9050919050565b7f416c726561647920726567697374657265640000000000000000000000000000600082015250565b60006200057d601283620003fb565b91506200058a8262000545565b602082019050919050565b60006020820190508181036000830152620005b0816200056e565b9050919050565b600073ffffffffffffffffffffffffffffffffffffffff82169050919050565b6000620005e482620005b7565b9050919050565b620005f681620005d7565b82525050565b6000602082019050620006136000830184620005eb565b92915050565b61328680620006296000396000f3fe608060405234801561001057600080fd5b50600436106101215760003560e01c8063a2788cce116100ad578063cdd7225311610071578063cdd722531461025e578063d4f50f981461027c578063ee74c678146102ac578063f2fde38b146102b6578063f4ab9adf146102d257610121565b8063a2788cce146101f2578063a7bfab1614610222578063bdc014311461022c578063c7038a4e1461024a578063c88af42f1461025457610121565b806362564c48116100f457806362564c4814610172578063715018a61461019057806388e1c7391461019a5780638da5cb5b146101b6578063a1edffa2146101d457610121565b8063230796ae146101265780632fdae3c514610142578063329a8cfa1461015e578063378a217814610168575b600080fd5b610140600480360381019061013b919061206b565b6102ee565b005b61015c600480360381019061015791906121de565b6105e9565b005b610166610885565b005b610170610af0565b005b61017a610cee565b60405161018791906123bd565b60405180910390f35b610198610e78565b005b6101b460048036038101906101af919061243d565b610f00565b005b6101be6110e6565b6040516101cb9190612479565b60405180910390f35b6101dc61110f565b6040516101e9919061250b565b60405180910390f35b61020c6004803603810190610207919061206b565b611122565b6040516102199190612563565b60405180910390f35b61022a611289565b005b6102346113e2565b60405161024191906125a1565b60405180910390f35b6102526113f5565b005b61025c61154f565b005b6102666116a9565b604051610273919061267a565b60405180910390f35b6102966004803603810190610291919061243d565b6117c6565b6040516102a391906126f9565b60405180910390f35b6102b46118ee565b005b6102d060048036038101906102cb919061243d565b611a48565b005b6102ec60048036038101906102e7919061243d565b611b3f565b005b600360003373ffffffffffffffffffffffffffffffffffffffff1673ffffffffffffffffffffffffffffffffffffffff16815260200190815260200160002060000160009054906101000a900460ff1661037d576040517f08c379a000000000000000000000000000000000000000000000000000000000815260040161037490612771565b60405180910390fd5b6003600581111561039157610390612494565b5b600460009054906101000a900460ff1660058111156103b3576103b2612494565b5b146103f3576040517f08c379a00000000000000000000000000000000000000000000000000000000081526004016103ea90612803565b60405180910390fd5b60011515600360003373ffffffffffffffffffffffffffffffffffffffff1673ffffffffffffffffffffffffffffffffffffffff16815260200190815260200160002060000160019054906101000a900460ff16151503610489576040517f08c379a00000000000000000000000000000000000000000000000000000000081526004016104809061286f565b60405180910390fd5b60018054905081106104d0576040517f08c379a00000000000000000000000000000000000000000000000000000000081526004016104c7906128db565b60405180910390fd5b80600360003373ffffffffffffffffffffffffffffffffffffffff1673ffffffffffffffffffffffffffffffffffffffff168152602001908152602001600020600101819055506001600360003373ffffffffffffffffffffffffffffffffffffffff1673ffffffffffffffffffffffffffffffffffffffff16815260200190815260200160002060000160016101000a81548160ff02191690831515021790555060018181548110610586576105856128fb565b5b906000526020600020906002020160010160008154809291906105a890612959565b91905055507f4d99b957a2bc29a30ebd96a7be8e68fe50a3c701db28a91436490b7d53870ca433826040516105de9291906129b0565b60405180910390a150565b600360003373ffffffffffffffffffffffffffffffffffffffff1673ffffffffffffffffffffffffffffffffffffffff16815260200190815260200160002060000160009054906101000a900460ff16610678576040517f08c379a000000000000000000000000000000000000000000000000000000000815260040161066f90612771565b60405180910390fd5b6001600581111561068c5761068b612494565b5b600460009054906101000a900460ff1660058111156106ae576106ad612494565b5b146106ee576040517f08c379a00000000000000000000000000000000000000000000000000000000081526004016106e590612a25565b60405180910390fd5b6040516020016106fd90612a6b565b60405160208183030381529060405280519060200120816040516020016107249190612ac4565b604051602081830303815290604052805190602001200361077a576040517f08c379a000000000000000000000000000000000000000000000000000000000815260040161077190612b58565b60405180910390fd5b600060159054906101000a900460ff1660ff1660018054905011156107d4576040517f08c379a00000000000000000000000000000000000000000000000000000000081526004016107cb90612bea565b60405180910390fd5b6107dc611e8b565b8181600001819052506001819080600181540180825580915050600190039060005260206000209060020201600090919091909150600082015181600001908051906020019061082d929190611ea5565b506020820151816001015550507f92e393e9b54e2f801d3ea4beb0c5e71a21cc34a5d34b77d0fb8a3aa1650dc18f6001808054905061086c9190612c0a565b6040516108799190612c3e565b60405180910390a15050565b61088d611dbf565b73ffffffffffffffffffffffffffffffffffffffff166108ab6110e6565b73ffffffffffffffffffffffffffffffffffffffff1614610901576040517f08c379a00000000000000000000000000000000000000000000000000000000081526004016108f890612ca5565b60405180910390fd5b60058081111561091457610913612494565b5b600460009054906101000a900460ff16600581111561093657610935612494565b5b14610976576040517f08c379a000000000000000000000000000000000000000000000000000000000815260040161096d90612d11565b60405180910390fd5b60005b600280549050811015610a4957600360006002838154811061099e5761099d6128fb565b5b9060005260206000200160009054906101000a900473ffffffffffffffffffffffffffffffffffffffff1673ffffffffffffffffffffffffffffffffffffffff1673ffffffffffffffffffffffffffffffffffffffff168152602001908152602001600020600080820160006101000a81549060ff02191690556000820160016101000a81549060ff0219169055600182016000905550508080610a4190612959565b915050610979565b5060026000610a589190611f2b565b60016000610a669190611f4c565b60008060146101000a81548160ff021916908360ff1602179055506000600460006101000a81548160ff02191690836005811115610aa757610aa6612494565b5b0217905550610ab533611b3f565b7f12687eba9406e7a8de7da7479a347f886082988951131e2f5e328211b33ca05e4243604051610ae6929190612d31565b60405180910390a1565b610af8611dbf565b73ffffffffffffffffffffffffffffffffffffffff16610b166110e6565b73ffffffffffffffffffffffffffffffffffffffff1614610b6c576040517f08c379a0000000000000000000000000000000000000000000000000000000008152600401610b6390612ca5565b60405180910390fd5b60046005811115610b8057610b7f612494565b5b600460009054906101000a900460ff166005811115610ba257610ba1612494565b5b14610be2576040517f08c379a0000000000000000000000000000000000000000000000000000000008152600401610bd990612dcc565b60405180910390fd5b600080600090505b6001805490508160ff161015610c695760018260ff1681548110610c1157610c106128fb565b5b90600052602060002090600202016001015460018260ff1681548110610c3a57610c396128fb565b5b9060005260206000209060020201600101541115610c56578091505b8080610c6190612dec565b915050610bea565b5080600060146101000a81548160ff021916908360ff1602179055506005600460006101000a81548160ff02191690836005811115610cab57610caa612494565b5b02179055507f0a97a4ee45751e2abf3e4fc8946939630b11b371ea8ae39ccdc3056e98f5cc3f60046005604051610ce3929190612e15565b60405180910390a150565b6060600360003373ffffffffffffffffffffffffffffffffffffffff1673ffffffffffffffffffffffffffffffffffffffff16815260200190815260200160002060000160009054906101000a900460ff16610d7f576040517f08c379a0000000000000000000000000000000000000000000000000000000008152600401610d7690612771565b60405180910390fd5b6001805480602002602001604051908101604052809291908181526020016000905b82821015610e6f5783829060005260206000209060020201604051806040016040529081600082018054610dd490612e6d565b80601f0160208091040260200160405190810160405280929190818152602001828054610e0090612e6d565b8015610e4d5780601f10610e2257610100808354040283529160200191610e4d565b820191906000526020600020905b815481529060010190602001808311610e3057829003601f168201915b5050505050815260200160018201548152505081526020019060010190610da1565b50505050905090565b610e80611dbf565b73ffffffffffffffffffffffffffffffffffffffff16610e9e6110e6565b73ffffffffffffffffffffffffffffffffffffffff1614610ef4576040517f08c379a0000000000000000000000000000000000000000000000000000000008152600401610eeb90612ca5565b60405180910390fd5b610efe6000611dc7565b565b610f08611dbf565b73ffffffffffffffffffffffffffffffffffffffff16610f266110e6565b73ffffffffffffffffffffffffffffffffffffffff1614610f7c576040517f08c379a0000000000000000000000000000000000000000000000000000000008152600401610f7390612ca5565b60405180910390fd5b60006005811115610f9057610f8f612494565b5b600460009054906101000a900460ff166005811115610fb257610fb1612494565b5b14610ff2576040517f08c379a0000000000000000000000000000000000000000000000000000000008152600401610fe990612f10565b60405180910390fd5b60011515600360008373ffffffffffffffffffffffffffffffffffffffff1673ffffffffffffffffffffffffffffffffffffffff16815260200190815260200160002060000160009054906101000a900460ff16151514611088576040517f08c379a000000000000000000000000000000000000000000000000000000000815260040161107f90612f7c565b60405180910390fd5b6000600360008373ffffffffffffffffffffffffffffffffffffffff1673ffffffffffffffffffffffffffffffffffffffff16815260200190815260200160002060000160006101000a81548160ff02191690831515021790555050565b60008060009054906101000a900473ffffffffffffffffffffffffffffffffffffffff16905090565b600460009054906101000a900460ff1681565b61112a611e8b565b600360003373ffffffffffffffffffffffffffffffffffffffff1673ffffffffffffffffffffffffffffffffffffffff16815260200190815260200160002060000160009054906101000a900460ff166111b9576040517f08c379a00000000000000000000000000000000000000000000000000000000081526004016111b090612771565b60405180910390fd5b600182815481106111cd576111cc6128fb565b5b90600052602060002090600202016040518060400160405290816000820180546111f690612e6d565b80601f016020809104026020016040519081016040528092919081815260200182805461122290612e6d565b801561126f5780601f106112445761010080835404028352916020019161126f565b820191906000526020600020905b81548152906001019060200180831161125257829003601f168201915b505050505081526020016001820154815250509050919050565b611291611dbf565b73ffffffffffffffffffffffffffffffffffffffff166112af6110e6565b73ffffffffffffffffffffffffffffffffffffffff1614611305576040517f08c379a00000000000000000000000000000000000000000000000000000000081526004016112fc90612ca5565b60405180910390fd5b6003600581111561131957611318612494565b5b600460009054906101000a900460ff16600581111561133b5761133a612494565b5b1461137b576040517f08c379a000000000000000000000000000000000000000000000000000000000815260040161137290612803565b60405180910390fd5b60048060006101000a81548160ff021916908360058111156113a05761139f612494565b5b02179055507f0a97a4ee45751e2abf3e4fc8946939630b11b371ea8ae39ccdc3056e98f5cc3f600360046040516113d8929190612e15565b60405180910390a1565b600060149054906101000a900460ff1681565b6113fd611dbf565b73ffffffffffffffffffffffffffffffffffffffff1661141b6110e6565b73ffffffffffffffffffffffffffffffffffffffff1614611471576040517f08c379a000000000000000000000000000000000000000000000000000000000815260040161146890612ca5565b60405180910390fd5b6000600581111561148557611484612494565b5b600460009054906101000a900460ff1660058111156114a7576114a6612494565b5b146114e7576040517f08c379a00000000000000000000000000000000000000000000000000000000081526004016114de9061300e565b60405180910390fd5b6001600460006101000a81548160ff0219169083600581111561150d5761150c612494565b5b02179055507f0a97a4ee45751e2abf3e4fc8946939630b11b371ea8ae39ccdc3056e98f5cc3f60006001604051611545929190612e15565b60405180910390a1565b611557611dbf565b73ffffffffffffffffffffffffffffffffffffffff166115756110e6565b73ffffffffffffffffffffffffffffffffffffffff16146115cb576040517f08c379a00000000000000000000000000000000000000000000000000000000081526004016115c290612ca5565b60405180910390fd5b600160058111156115df576115de612494565b5b600460009054906101000a900460ff16600581111561160157611600612494565b5b14611641576040517f08c379a0000000000000000000000000000000000000000000000000000000008152600401611638906130a0565b60405180910390fd5b6002600460006101000a81548160ff0219169083600581111561166757611666612494565b5b02179055507f0a97a4ee45751e2abf3e4fc8946939630b11b371ea8ae39ccdc3056e98f5cc3f6001600260405161169f929190612e15565b60405180910390a1565b6060600360003373ffffffffffffffffffffffffffffffffffffffff1673ffffffffffffffffffffffffffffffffffffffff16815260200190815260200160002060000160009054906101000a900460ff1661173a576040517f08c379a000000000000000000000000000000000000000000000000000000000815260040161173190612771565b60405180910390fd5b60028054806020026020016040519081016040528092919081815260200182805480156117bc57602002820191906000526020600020905b8160009054906101000a900473ffffffffffffffffffffffffffffffffffffffff1673ffffffffffffffffffffffffffffffffffffffff1681526020019060010190808311611772575b5050505050905090565b6117ce611f70565b600360003373ffffffffffffffffffffffffffffffffffffffff1673ffffffffffffffffffffffffffffffffffffffff16815260200190815260200160002060000160009054906101000a900460ff1661185d576040517f08c379a000000000000000000000000000000000000000000000000000000000815260040161185490612771565b60405180910390fd5b600360008373ffffffffffffffffffffffffffffffffffffffff1673ffffffffffffffffffffffffffffffffffffffff1681526020019081526020016000206040518060600160405290816000820160009054906101000a900460ff161515151581526020016000820160019054906101000a900460ff161515151581526020016001820154815250509050919050565b6118f6611dbf565b73ffffffffffffffffffffffffffffffffffffffff166119146110e6565b73ffffffffffffffffffffffffffffffffffffffff161461196a576040517f08c379a000000000000000000000000000000000000000000000000000000000815260040161196190612ca5565b60405180910390fd5b6002600581111561197e5761197d612494565b5b600460009054906101000a900460ff1660058111156119a05761199f612494565b5b146119e0576040517f08c379a00000000000000000000000000000000000000000000000000000000081526004016119d790613132565b60405180910390fd5b6003600460006101000a81548160ff02191690836005811115611a0657611a05612494565b5b02179055507f0a97a4ee45751e2abf3e4fc8946939630b11b371ea8ae39ccdc3056e98f5cc3f60026003604051611a3e929190612e15565b60405180910390a1565b611a50611dbf565b73ffffffffffffffffffffffffffffffffffffffff16611a6e6110e6565b73ffffffffffffffffffffffffffffffffffffffff1614611ac4576040517f08c379a0000000000000000000000000000000000000000000000000000000008152600401611abb90612ca5565b60405180910390fd5b600073ffffffffffffffffffffffffffffffffffffffff168173ffffffffffffffffffffffffffffffffffffffff1603611b33576040517f08c379a0000000000000000000000000000000000000000000000000000000008152600401611b2a906131c4565b60405180910390fd5b611b3c81611dc7565b50565b611b47611dbf565b73ffffffffffffffffffffffffffffffffffffffff16611b656110e6565b73ffffffffffffffffffffffffffffffffffffffff1614611bbb576040517f08c379a0000000000000000000000000000000000000000000000000000000008152600401611bb290612ca5565b60405180910390fd5b60006005811115611bcf57611bce612494565b5b600460009054906101000a900460ff166005811115611bf157611bf0612494565b5b14611c31576040517f08c379a0000000000000000000000000000000000000000000000000000000008152600401611c2890612f10565b60405180910390fd5b60011515600360008373ffffffffffffffffffffffffffffffffffffffff1673ffffffffffffffffffffffffffffffffffffffff16815260200190815260200160002060000160009054906101000a900460ff16151503611cc7576040517f08c379a0000000000000000000000000000000000000000000000000000000008152600401611cbe90613230565b60405180910390fd5b6001600360008373ffffffffffffffffffffffffffffffffffffffff1673ffffffffffffffffffffffffffffffffffffffff16815260200190815260200160002060000160006101000a81548160ff0219169083151502179055506002819080600181540180825580915050600190039060005260206000200160009091909190916101000a81548173ffffffffffffffffffffffffffffffffffffffff021916908373ffffffffffffffffffffffffffffffffffffffff1602179055507fb6be2187d059cc2a55fe29e0e503b566e1e0f8c8780096e185429350acffd3dd81604051611db49190612479565b60405180910390a150565b600033905090565b60008060009054906101000a900473ffffffffffffffffffffffffffffffffffffffff169050816000806101000a81548173ffffffffffffffffffffffffffffffffffffffff021916908373ffffffffffffffffffffffffffffffffffffffff1602179055508173ffffffffffffffffffffffffffffffffffffffff168173ffffffffffffffffffffffffffffffffffffffff167f8be0079c531659141344cd1fd0a4f28419497f9722a3daafe3b4186f6b6457e060405160405180910390a35050565b604051806040016040528060608152602001600081525090565b828054611eb190612e6d565b90600052602060002090601f016020900481019282611ed35760008555611f1a565b82601f10611eec57805160ff1916838001178555611f1a565b82800160010185558215611f1a579182015b82811115611f19578251825591602001919060010190611efe565b5b509050611f279190611f95565b5090565b5080546000825590600052602060002090810190611f499190611f95565b50565b5080546000825560020290600052602060002090810190611f6d9190611fb2565b50565b6040518060600160405280600015158152602001600015158152602001600081525090565b5b80821115611fae576000816000905550600101611f96565b5090565b5b80821115611fdd5760008082016000611fcc9190611fe1565b600182016000905550600201611fb3565b5090565b508054611fed90612e6d565b6000825580601f10611fff575061201e565b601f01602090049060005260206000209081019061201d9190611f95565b5b50565b6000604051905090565b600080fd5b600080fd5b6000819050919050565b61204881612035565b811461205357600080fd5b50565b6000813590506120658161203f565b92915050565b6000602082840312156120815761208061202b565b5b600061208f84828501612056565b91505092915050565b600080fd5b600080fd5b6000601f19601f8301169050919050565b7f4e487b7100000000000000000000000000000000000000000000000000000000600052604160045260246000fd5b6120eb826120a2565b810181811067ffffffffffffffff8211171561210a576121096120b3565b5b80604052505050565b600061211d612021565b905061212982826120e2565b919050565b600067ffffffffffffffff821115612149576121486120b3565b5b612152826120a2565b9050602081019050919050565b82818337600083830152505050565b600061218161217c8461212e565b612113565b90508281526020810184848401111561219d5761219c61209d565b5b6121a884828561215f565b509392505050565b600082601f8301126121c5576121c4612098565b5b81356121d584826020860161216e565b91505092915050565b6000602082840312156121f4576121f361202b565b5b600082013567ffffffffffffffff81111561221257612211612030565b5b61221e848285016121b0565b91505092915050565b600081519050919050565b600082825260208201905092915050565b6000819050602082019050919050565b600081519050919050565b600082825260208201905092915050565b60005b8381101561228d578082015181840152602081019050612272565b8381111561229c576000848401525b50505050565b60006122ad82612253565b6122b7818561225e565b93506122c781856020860161226f565b6122d0816120a2565b840191505092915050565b6122e481612035565b82525050565b6000604083016000830151848203600086015261230782826122a2565b915050602083015161231c60208601826122db565b508091505092915050565b600061233383836122ea565b905092915050565b6000602082019050919050565b600061235382612227565b61235d8185612232565b93508360208202850161236f85612243565b8060005b858110156123ab578484038952815161238c8582612327565b94506123978361233b565b925060208a01995050600181019050612373565b50829750879550505050505092915050565b600060208201905081810360008301526123d78184612348565b905092915050565b600073ffffffffffffffffffffffffffffffffffffffff82169050919050565b600061240a826123df565b9050919050565b61241a816123ff565b811461242557600080fd5b50565b60008135905061243781612411565b92915050565b6000602082840312156124535761245261202b565b5b600061246184828501612428565b91505092915050565b612473816123ff565b82525050565b600060208201905061248e600083018461246a565b92915050565b7f4e487b7100000000000000000000000000000000000000000000000000000000600052602160045260246000fd5b600681106124d4576124d3612494565b5b50565b60008190506124e5826124c3565b919050565b60006124f5826124d7565b9050919050565b612505816124ea565b82525050565b600060208201905061252060008301846124fc565b92915050565b6000604083016000830151848203600086015261254382826122a2565b915050602083015161255860208601826122db565b508091505092915050565b6000602082019050818103600083015261257d8184612526565b905092915050565b600060ff82169050919050565b61259b81612585565b82525050565b60006020820190506125b66000830184612592565b92915050565b600081519050919050565b600082825260208201905092915050565b6000819050602082019050919050565b6125f1816123ff565b82525050565b600061260383836125e8565b60208301905092915050565b6000602082019050919050565b6000612627826125bc565b61263181856125c7565b935061263c836125d8565b8060005b8381101561266d57815161265488826125f7565b975061265f8361260f565b925050600181019050612640565b5085935050505092915050565b60006020820190508181036000830152612694818461261c565b905092915050565b60008115159050919050565b6126b18161269c565b82525050565b6060820160008201516126cd60008501826126a8565b5060208201516126e060208501826126a8565b5060408201516126f360408501826122db565b50505050565b600060608201905061270e60008301846126b7565b92915050565b600082825260208201905092915050565b7f596f75277265206e6f74206120766f7465720000000000000000000000000000600082015250565b600061275b601283612714565b915061276682612725565b602082019050919050565b6000602082019050818103600083015261278a8161274e565b9050919050565b7f566f74696e672073657373696f6e20686176656e74207374617274656420796560008201527f7400000000000000000000000000000000000000000000000000000000000000602082015250565b60006127ed602183612714565b91506127f882612791565b604082019050919050565b6000602082019050818103600083015261281c816127e0565b9050919050565b7f596f75206861766520616c726561647920766f74656400000000000000000000600082015250565b6000612859601683612714565b915061286482612823565b602082019050919050565b600060208201905081810360008301526128888161284c565b9050919050565b7f50726f706f73616c206e6f7420666f756e640000000000000000000000000000600082015250565b60006128c5601283612714565b91506128d08261288f565b602082019050919050565b600060208201905081810360008301526128f4816128b8565b9050919050565b7f4e487b7100000000000000000000000000000000000000000000000000000000600052603260045260246000fd5b7f4e487b7100000000000000000000000000000000000000000000000000000000600052601160045260246000fd5b600061296482612035565b91507fffffffffffffffffffffffffffffffffffffffffffffffffffffffffffffffff82036129965761299561292a565b5b600182019050919050565b6129aa81612035565b82525050565b60006040820190506129c5600083018561246a565b6129d260208301846129a1565b9392505050565b7f50726f706f73616c7320617265206e6f7420616c6c6f77656420796574000000600082015250565b6000612a0f601d83612714565b9150612a1a826129d9565b602082019050919050565b60006020820190508181036000830152612a3e81612a02565b9050919050565b50565b6000612a55600083612714565b9150612a6082612a45565b600082019050919050565b60006020820190508181036000830152612a8481612a48565b9050919050565b6000612a9682612253565b612aa08185612714565b9350612ab081856020860161226f565b612ab9816120a2565b840191505092915050565b60006020820190508181036000830152612ade8184612a8b565b905092915050565b7f566f7573206e6520706f7576657a20706173206e65207269656e2070726f706f60008201527f7365720000000000000000000000000000000000000000000000000000000000602082015250565b6000612b42602383612714565b9150612b4d82612ae6565b604082019050919050565b60006020820190508181036000830152612b7181612b35565b9050919050565b7f466f72207468697320766f74652c20796f752061726520616c6c6f776564207460008201527f6f206372656174652035302070726f706f73616c73206d617800000000000000602082015250565b6000612bd4603983612714565b9150612bdf82612b78565b604082019050919050565b60006020820190508181036000830152612c0381612bc7565b9050919050565b6000612c1582612035565b9150612c2083612035565b925082821015612c3357612c3261292a565b5b828203905092915050565b6000602082019050612c5360008301846129a1565b92915050565b7f4f776e61626c653a2063616c6c6572206973206e6f7420746865206f776e6572600082015250565b6000612c8f602083612714565b9150612c9a82612c59565b602082019050919050565b60006020820190508181036000830152612cbe81612c82565b9050919050565b7f566f746573206e6f742074616c6c696564000000000000000000000000000000600082015250565b6000612cfb601183612714565b9150612d0682612cc5565b602082019050919050565b60006020820190508181036000830152612d2a81612cee565b9050919050565b6000604082019050612d4660008301856129a1565b612d5360208301846129a1565b9392505050565b7f43757272656e7420737461747573206973206e6f7420766f74696e672073657360008201527f73696f6e20656e64656400000000000000000000000000000000000000000000602082015250565b6000612db6602a83612714565b9150612dc182612d5a565b604082019050919050565b60006020820190508181036000830152612de581612da9565b9050919050565b6000612df782612585565b915060ff8203612e0a57612e0961292a565b5b600182019050919050565b6000604082019050612e2a60008301856124fc565b612e3760208301846124fc565b9392505050565b7f4e487b7100000000000000000000000000000000000000000000000000000000600052602260045260246000fd5b60006002820490506001821680612e8557607f821691505b602082108103612e9857612e97612e3e565b5b50919050565b7f566f7465727320726567697374726174696f6e206973206e6f74206f70656e2060008201527f7965740000000000000000000000000000000000000000000000000000000000602082015250565b6000612efa602383612714565b9150612f0582612e9e565b604082019050919050565b60006020820190508181036000830152612f2981612eed565b9050919050565b7f4e6f7420726567697374657265642e0000000000000000000000000000000000600082015250565b6000612f66600f83612714565b9150612f7182612f30565b602082019050919050565b60006020820190508181036000830152612f9581612f59565b9050919050565b7f5265676973746572696e672070726f706f73616c732063616e7420626520737460008201527f6172746564206e6f770000000000000000000000000000000000000000000000602082015250565b6000612ff8602983612714565b915061300382612f9c565b604082019050919050565b6000602082019050818103600083015261302781612feb565b9050919050565b7f5265676973746572696e672070726f706f73616c7320686176656e742073746160008201527f7274656420796574000000000000000000000000000000000000000000000000602082015250565b600061308a602883612714565b91506130958261302e565b604082019050919050565b600060208201905081810360008301526130b98161307d565b9050919050565b7f5265676973746572696e672070726f706f73616c73207068617365206973206e60008201527f6f742066696e6973686564000000000000000000000000000000000000000000602082015250565b600061311c602b83612714565b9150613127826130c0565b604082019050919050565b6000602082019050818103600083015261314b8161310f565b9050919050565b7f4f776e61626c653a206e6577206f776e657220697320746865207a65726f206160008201527f6464726573730000000000000000000000000000000000000000000000000000602082015250565b60006131ae602683612714565b91506131b982613152565b604082019050919050565b600060208201905081810360008301526131dd816131a1565b9050919050565b7f416c726561647920726567697374657265640000000000000000000000000000600082015250565b600061321a601283612714565b9150613225826131e4565b602082019050919050565b600060208201905081810360008301526132498161320d565b905091905056fea26469706673582212207ff73654f4144498ccfe805cb98ef6127dd6954bd07e9675374229ec3be4500964736f6c634300080d0033",
  "immutableReferences": {},
  "source": "// SPDX-License-Identifier: MIT\n\npragma solidity 0.8.13;\n\nimport \"@openzeppelin/contracts/access/Ownable.sol\";\n\n/**\n * @title Voting smart contract\n *\n * @author Jonacity\n *\n * @dev A simple voting system\n */\ncontract Voting is Ownable {\n\n    struct Voter {\n        bool isRegistered;\n        bool hasVoted;\n        uint votedProposalId;\n    }\n    struct Proposal {\n        string description;\n        uint voteCount;\n    }\n    enum WorkflowStatus {\n        RegisteringVoters,\n        ProposalsRegistrationStarted,\n        ProposalsRegistrationEnded,\n        VotingSessionStarted,\n        VotingSessionEnded,\n        VotesTallied\n    }\n\n    uint8 public winningProposalID;\n    uint8 maxProposals = 50;\n    Proposal[] proposalsArray;\n    address[] votersArray;\n    mapping (address => Voter) voters;\n    WorkflowStatus public workflowStatus;\n\n    event VoterRegistered(address voterAddress);\n    event ProposalRegistered(uint proposalId);\n    event Voted (address voter, uint proposalId);\n    event ResetVote(uint date, uint blockNumber);\n    event WorkflowStatusChange(WorkflowStatus previousStatus, WorkflowStatus newStatus);\n\n    /**\n     * @dev Constructor: the contract owner is added as voter\n     */\n    constructor() {\n        addVoter(msg.sender);\n    }\n\n    /**\n     * @dev Check if the sender is a registered voter\n     */\n    modifier onlyVoters() {\n        require(voters[msg.sender].isRegistered, \"You're not a voter\");\n        _;\n    }\n\n    /**\n     * @dev Get a voter from an address\n     *\n     * @param _addr Address of the user\n     *\n     * @return Voter Voter details\n     */\n    function getVoter(address _addr) external onlyVoters view returns (Voter memory) {\n        return voters[_addr];\n    }\n\n    /**\n     * @dev Get a proposal from an id\n     *\n     * @param _id Proposal id\n     *\n     * @return Proposal Proposal details\n     */\n    function getOneProposal(uint _id) external onlyVoters view returns (Proposal memory) {\n        return proposalsArray[_id];\n    }\n\n    /**\n     * @dev Get all proposals\n     *\n     * @return Proposal[] Added proposals list\n     */\n    function getProposals() external onlyVoters view returns (Proposal[] memory) {\n        return proposalsArray;\n    }\n\n    /**\n     * @dev Get all voters addresses\n     *\n     * @return address[] Registered voters addresses\n     */\n    function getVoters() external onlyVoters view returns (address[] memory) {\n        return votersArray;\n    }\n\n    /**\n     * @dev Register a voter and add his address into the votersArray\n     *\n     * @param _addr Voter address\n     */\n    function addVoter(address _addr) public onlyOwner {\n        require(workflowStatus == WorkflowStatus.RegisteringVoters, 'Voters registration is not open yet');\n        require(voters[_addr].isRegistered != true, 'Already registered');\n\n        voters[_addr].isRegistered = true;\n        votersArray.push(_addr);\n        emit VoterRegistered(_addr);\n    }\n\n     /**\n     * @dev Delete a voter\n     *\n     * @param _addr Voter address\n     */\n    function deleteVoter(address _addr) external onlyOwner {\n        require(workflowStatus == WorkflowStatus.RegisteringVoters, 'Voters registration is not open yet');\n        require(voters[_addr].isRegistered == true, 'Not registered.');\n\n        voters[_addr].isRegistered = false;\n    }\n\n    /**\n     * @dev Create a proposal\n     *\n     * @param _desc Proposal description\n     */\n    function addProposal(string memory _desc) external onlyVoters {\n        require(workflowStatus == WorkflowStatus.ProposalsRegistrationStarted, 'Proposals are not allowed yet');\n        require(keccak256(abi.encode(_desc)) != keccak256(abi.encode(\"\")), 'Vous ne pouvez pas ne rien proposer'); // facultatif\n        require(proposalsArray.length <= maxProposals, \"For this vote, you are allowed to create 50 proposals max\");\n        // voir que desc est different des autres\n\n        Proposal memory proposal;\n        proposal.description = _desc;\n        proposalsArray.push(proposal);\n        emit ProposalRegistered(proposalsArray.length-1);\n    }\n\n    /**\n     * @dev Vote to a proposal\n     *\n     * @param _id Proposal id\n     */\n    function setVote( uint _id) external onlyVoters {\n        require(workflowStatus == WorkflowStatus.VotingSessionStarted, 'Voting session havent started yet');\n        require(voters[msg.sender].hasVoted != true, 'You have already voted');\n        require(_id < proposalsArray.length, 'Proposal not found'); // pas oblig, et pas besoin du >0 car uint\n\n        voters[msg.sender].votedProposalId = _id;\n        voters[msg.sender].hasVoted = true;\n        proposalsArray[_id].voteCount++;\n        emit Voted(msg.sender, _id);\n    }\n\n    /**\n     * @dev Start the proposals registering\n     */\n    function startProposalsRegistering() external onlyOwner {\n        require(workflowStatus == WorkflowStatus.RegisteringVoters, 'Registering proposals cant be started now');\n\n        workflowStatus = WorkflowStatus.ProposalsRegistrationStarted;\n        emit WorkflowStatusChange(WorkflowStatus.RegisteringVoters, WorkflowStatus.ProposalsRegistrationStarted);\n    }\n\n    /**\n     * @dev End the proposals registering\n     */\n    function endProposalsRegistering() external onlyOwner {\n        require(workflowStatus == WorkflowStatus.ProposalsRegistrationStarted, 'Registering proposals havent started yet');\n\n        workflowStatus = WorkflowStatus.ProposalsRegistrationEnded;\n        emit WorkflowStatusChange(WorkflowStatus.ProposalsRegistrationStarted, WorkflowStatus.ProposalsRegistrationEnded);\n    }\n\n    /**\n     * @dev Start the voting session\n     */\n    function startVotingSession() external onlyOwner {\n        require(workflowStatus == WorkflowStatus.ProposalsRegistrationEnded, 'Registering proposals phase is not finished');\n\n        workflowStatus = WorkflowStatus.VotingSessionStarted;\n        emit WorkflowStatusChange(WorkflowStatus.ProposalsRegistrationEnded, WorkflowStatus.VotingSessionStarted);\n    }\n\n    /**\n     * @dev End the voting session\n     */\n    function endVotingSession() external onlyOwner {\n        require(workflowStatus == WorkflowStatus.VotingSessionStarted, 'Voting session havent started yet');\n\n        workflowStatus = WorkflowStatus.VotingSessionEnded;\n        emit WorkflowStatusChange(WorkflowStatus.VotingSessionStarted, WorkflowStatus.VotingSessionEnded);\n    }\n\n    /**\n     * @dev Tally the votes and set the proposal winner (winningProposalId)\n     */\n    function tallyVotes() external onlyOwner {\n            require(workflowStatus == WorkflowStatus.VotingSessionEnded, \"Current status is not voting session ended\");\n\n            uint8 _winningProposalId;\n            for (uint8 p = 0; p < proposalsArray.length; p++) {\n                if (proposalsArray[p].voteCount > proposalsArray[_winningProposalId].voteCount) {\n                    _winningProposalId = p;\n                }\n            }\n            winningProposalID = _winningProposalId;\n            workflowStatus = WorkflowStatus.VotesTallied;\n            emit WorkflowStatusChange(WorkflowStatus.VotingSessionEnded, WorkflowStatus.VotesTallied);\n        }\n\n    /**\n     * @dev Reset the voting system restoring all variables to initial values\n     */\n    function resetVote() public onlyOwner {\n        require(workflowStatus == WorkflowStatus.VotesTallied, \"Votes not tallied\");\n\n        for (uint n = 0; n < votersArray.length; n ++) {\n            delete voters[votersArray[n]];\n        }\n        delete votersArray;\n        delete proposalsArray;\n        winningProposalID = 0;\n        workflowStatus = WorkflowStatus.RegisteringVoters;\n        addVoter(msg.sender);\n        emit ResetVote(block.timestamp, block.number);\n    }\n\n}\n",
  "sourcePath": "/Users/aline/alyra/truffle-react-voting/contracts/Voting.sol",
  "compiler": {
    "name": "solc",
    "version": "0.8.13+commit.abaa5c0e.Emscripten.clang"
  },
  "schemaVersion": "3.4.6",
  "updatedAt": "2022-04-22T14:41:12.661Z",
  "networkType": "ethereum",
  "devdoc": {
    "author": "Jonacity",
    "details": "A simple voting system",
    "kind": "dev",
    "methods": {
      "addProposal(string)": {
        "details": "Create a proposal",
        "params": {
          "_desc": "Proposal description"
        }
      },
      "addVoter(address)": {
        "details": "Register a voter and add his address into the votersArray",
        "params": {
          "_addr": "Voter address"
        }
      },
      "constructor": {
        "details": "Constructor: the contract owner is added as voter"
      },
      "deleteVoter(address)": {
        "details": "Delete a voter",
        "params": {
          "_addr": "Voter address"
        }
      },
      "endProposalsRegistering()": {
        "details": "End the proposals registering"
      },
      "endVotingSession()": {
        "details": "End the voting session"
      },
      "getOneProposal(uint256)": {
        "details": "Get a proposal from an id",
        "params": {
          "_id": "Proposal id"
        },
        "returns": {
          "_0": "Proposal Proposal details"
        }
      },
      "getProposals()": {
        "details": "Get all proposals",
        "returns": {
          "_0": "Proposal[] Added proposals list"
        }
      },
      "getVoter(address)": {
        "details": "Get a voter from an address",
        "params": {
          "_addr": "Address of the user"
        },
        "returns": {
          "_0": "Voter Voter details"
        }
      },
      "getVoters()": {
        "details": "Get all voters addresses",
        "returns": {
          "_0": "address[] Registered voters addresses"
        }
      },
      "owner()": {
        "details": "Returns the address of the current owner."
      },
      "renounceOwnership()": {
        "details": "Leaves the contract without owner. It will not be possible to call `onlyOwner` functions anymore. Can only be called by the current owner. NOTE: Renouncing ownership will leave the contract without an owner, thereby removing any functionality that is only available to the owner."
      },
      "resetVote()": {
        "details": "Reset the voting system restoring all variables to initial values"
      },
      "setVote(uint256)": {
        "details": "Vote to a proposal",
        "params": {
          "_id": "Proposal id"
        }
      },
      "startProposalsRegistering()": {
        "details": "Start the proposals registering"
      },
      "startVotingSession()": {
        "details": "Start the voting session"
      },
      "tallyVotes()": {
        "details": "Tally the votes and set the proposal winner (winningProposalId)"
      },
      "transferOwnership(address)": {
        "details": "Transfers ownership of the contract to a new account (`newOwner`). Can only be called by the current owner."
      }
    },
    "title": "Voting smart contract",
    "version": 1
  },
  "userdoc": {
    "kind": "user",
    "methods": {},
    "version": 1
  }
}