{
  "contractName": "Voting",
  "abi": [
    {
      "inputs": [],
      "stateMutability": "nonpayable",
      "type": "constructor"
    },
    {
      "anonymous": false,
      "inputs": [
        {
          "indexed": true,
          "internalType": "address",
          "name": "previousOwner",
          "type": "address"
        },
        {
          "indexed": true,
          "internalType": "address",
          "name": "newOwner",
          "type": "address"
        }
      ],
      "name": "OwnershipTransferred",
      "type": "event"
    },
    {
      "anonymous": false,
      "inputs": [
        {
          "indexed": false,
          "internalType": "uint256",
          "name": "proposalId",
          "type": "uint256"
        }
      ],
      "name": "ProposalRegistered",
      "type": "event"
    },
    {
      "anonymous": false,
      "inputs": [
        {
          "indexed": false,
          "internalType": "uint256",
          "name": "date",
          "type": "uint256"
        },
        {
          "indexed": false,
          "internalType": "uint256",
          "name": "blockNumber",
          "type": "uint256"
        }
      ],
      "name": "ResetVote",
      "type": "event"
    },
    {
      "anonymous": false,
      "inputs": [
        {
          "indexed": false,
          "internalType": "address",
          "name": "voter",
          "type": "address"
        },
        {
          "indexed": false,
          "internalType": "uint256",
          "name": "proposalId",
          "type": "uint256"
        }
      ],
      "name": "Voted",
      "type": "event"
    },
    {
      "anonymous": false,
      "inputs": [
        {
          "indexed": false,
          "internalType": "address",
          "name": "voterAddress",
          "type": "address"
        }
      ],
      "name": "VoterRegistered",
      "type": "event"
    },
    {
      "anonymous": false,
      "inputs": [
        {
          "indexed": false,
          "internalType": "enum Voting.WorkflowStatus",
          "name": "previousStatus",
          "type": "uint8"
        },
        {
          "indexed": false,
          "internalType": "enum Voting.WorkflowStatus",
          "name": "newStatus",
          "type": "uint8"
        }
      ],
      "name": "WorkflowStatusChange",
      "type": "event"
    },
    {
      "inputs": [],
      "name": "owner",
      "outputs": [
        {
          "internalType": "address",
          "name": "",
          "type": "address"
        }
      ],
      "stateMutability": "view",
      "type": "function",
      "constant": true
    },
    {
      "inputs": [],
      "name": "renounceOwnership",
      "outputs": [],
      "stateMutability": "nonpayable",
      "type": "function"
    },
    {
      "inputs": [
        {
          "internalType": "address",
          "name": "newOwner",
          "type": "address"
        }
      ],
      "name": "transferOwnership",
      "outputs": [],
      "stateMutability": "nonpayable",
      "type": "function"
    },
    {
      "inputs": [],
      "name": "winningProposalID",
      "outputs": [
        {
          "internalType": "uint8",
          "name": "",
          "type": "uint8"
        }
      ],
      "stateMutability": "view",
      "type": "function",
      "constant": true
    },
    {
      "inputs": [],
      "name": "workflowStatus",
      "outputs": [
        {
          "internalType": "enum Voting.WorkflowStatus",
          "name": "",
          "type": "uint8"
        }
      ],
      "stateMutability": "view",
      "type": "function",
      "constant": true
    },
    {
      "inputs": [
        {
          "internalType": "address",
          "name": "_addr",
          "type": "address"
        }
      ],
      "name": "getVoter",
      "outputs": [
        {
          "components": [
            {
              "internalType": "bool",
              "name": "isRegistered",
              "type": "bool"
            },
            {
              "internalType": "bool",
              "name": "hasVoted",
              "type": "bool"
            },
            {
              "internalType": "uint256",
              "name": "votedProposalId",
              "type": "uint256"
            }
          ],
          "internalType": "struct Voting.Voter",
          "name": "",
          "type": "tuple"
        }
      ],
      "stateMutability": "view",
      "type": "function",
      "constant": true
    },
    {
      "inputs": [
        {
          "internalType": "uint256",
          "name": "_id",
          "type": "uint256"
        }
      ],
      "name": "getOneProposal",
      "outputs": [
        {
          "components": [
            {
              "internalType": "string",
              "name": "description",
              "type": "string"
            },
            {
              "internalType": "uint256",
              "name": "voteCount",
              "type": "uint256"
            }
          ],
          "internalType": "struct Voting.Proposal",
          "name": "",
          "type": "tuple"
        }
      ],
      "stateMutability": "view",
      "type": "function",
      "constant": true
    },
    {
      "inputs": [],
      "name": "getProposals",
      "outputs": [
        {
          "components": [
            {
              "internalType": "string",
              "name": "description",
              "type": "string"
            },
            {
              "internalType": "uint256",
              "name": "voteCount",
              "type": "uint256"
            }
          ],
          "internalType": "struct Voting.Proposal[]",
          "name": "",
          "type": "tuple[]"
        }
      ],
      "stateMutability": "view",
      "type": "function",
      "constant": true
    },
    {
      "inputs": [],
      "name": "getVoters",
      "outputs": [
        {
          "internalType": "address[]",
          "name": "",
          "type": "address[]"
        }
      ],
      "stateMutability": "view",
      "type": "function",
      "constant": true
    },
    {
      "inputs": [
        {
          "internalType": "address",
          "name": "_addr",
          "type": "address"
        }
      ],
      "name": "addVoter",
      "outputs": [],
      "stateMutability": "nonpayable",
      "type": "function"
    },
    {
      "inputs": [
        {
          "internalType": "address",
          "name": "_addr",
          "type": "address"
        }
      ],
      "name": "deleteVoter",
      "outputs": [],
      "stateMutability": "nonpayable",
      "type": "function"
    },
    {
      "inputs": [
        {
          "internalType": "string",
          "name": "_desc",
          "type": "string"
        }
      ],
      "name": "addProposal",
      "outputs": [],
      "stateMutability": "nonpayable",
      "type": "function"
    },
    {
      "inputs": [
        {
          "internalType": "uint256",
          "name": "_id",
          "type": "uint256"
        }
      ],
      "name": "setVote",
      "outputs": [],
      "stateMutability": "nonpayable",
      "type": "function"
    },
    {
      "inputs": [],
      "name": "startProposalsRegistering",
      "outputs": [],
      "stateMutability": "nonpayable",
      "type": "function"
    },
    {
      "inputs": [],
      "name": "endProposalsRegistering",
      "outputs": [],
      "stateMutability": "nonpayable",
      "type": "function"
    },
    {
      "inputs": [],
      "name": "startVotingSession",
      "outputs": [],
      "stateMutability": "nonpayable",
      "type": "function"
    },
    {
      "inputs": [],
      "name": "endVotingSession",
      "outputs": [],
      "stateMutability": "nonpayable",
      "type": "function"
    },
    {
      "inputs": [],
      "name": "tallyVotes",
      "outputs": [],
      "stateMutability": "nonpayable",
      "type": "function"
    },
    {
      "inputs": [],
      "name": "resetVote",
      "outputs": [],
      "stateMutability": "nonpayable",
      "type": "function"
    }
  ],
  "bytecode": "0x60806040526032600060156101000a81548160ff021916908360ff1602179055503480156200002d57600080fd5b506200004e620000426200006560201b60201c565b6200006d60201b60201c565b6200005f336200013160201b60201c565b62000619565b600033905090565b60008060009054906101000a900473ffffffffffffffffffffffffffffffffffffffff169050816000806101000a81548173ffffffffffffffffffffffffffffffffffffffff021916908373ffffffffffffffffffffffffffffffffffffffff1602179055508173ffffffffffffffffffffffffffffffffffffffff168173ffffffffffffffffffffffffffffffffffffffff167f8be0079c531659141344cd1fd0a4f28419497f9722a3daafe3b4186f6b6457e060405160405180910390a35050565b620001416200006560201b60201c565b73ffffffffffffffffffffffffffffffffffffffff1662000167620003d260201b60201c565b73ffffffffffffffffffffffffffffffffffffffff1614620001c0576040517f08c379a0000000000000000000000000000000000000000000000000000000008152600401620001b7906200045c565b60405180910390fd5b60006005811115620001d757620001d66200047e565b5b600460009054906101000a900460ff166005811115620001fc57620001fb6200047e565b5b146200023f576040517f08c379a0000000000000000000000000000000000000000000000000000000008152600401620002369062000523565b60405180910390fd5b60011515600360008373ffffffffffffffffffffffffffffffffffffffff1673ffffffffffffffffffffffffffffffffffffffff16815260200190815260200160002060000160009054906101000a900460ff16151503620002d8576040517f08c379a0000000000000000000000000000000000000000000000000000000008152600401620002cf9062000595565b60405180910390fd5b6001600360008373ffffffffffffffffffffffffffffffffffffffff1673ffffffffffffffffffffffffffffffffffffffff16815260200190815260200160002060000160006101000a81548160ff0219169083151502179055506002819080600181540180825580915050600190039060005260206000200160009091909190916101000a81548173ffffffffffffffffffffffffffffffffffffffff021916908373ffffffffffffffffffffffffffffffffffffffff1602179055507fb6be2187d059cc2a55fe29e0e503b566e1e0f8c8780096e185429350acffd3dd81604051620003c79190620005fc565b60405180910390a150565b60008060009054906101000a900473ffffffffffffffffffffffffffffffffffffffff16905090565b600082825260208201905092915050565b7f4f776e61626c653a2063616c6c6572206973206e6f7420746865206f776e6572600082015250565b600062000444602083620003fb565b915062000451826200040c565b602082019050919050565b60006020820190508181036000830152620004778162000435565b9050919050565b7f4e487b7100000000000000000000000000000000000000000000000000000000600052602160045260246000fd5b7f566f7465727320726567697374726174696f6e206973206e6f74206f70656e2060008201527f7965740000000000000000000000000000000000000000000000000000000000602082015250565b60006200050b602383620003fb565b91506200051882620004ad565b604082019050919050565b600060208201905081810360008301526200053e81620004fc565b9050919050565b7f416c726561647920726567697374657265640000000000000000000000000000600082015250565b60006200057d601283620003fb565b91506200058a8262000545565b602082019050919050565b60006020820190508181036000830152620005b0816200056e565b9050919050565b600073ffffffffffffffffffffffffffffffffffffffff82169050919050565b6000620005e482620005b7565b9050919050565b620005f681620005d7565b82525050565b6000602082019050620006136000830184620005eb565b92915050565b61325f80620006296000396000f3fe608060405234801561001057600080fd5b50600436106101215760003560e01c8063a2788cce116100ad578063cdd7225311610071578063cdd722531461025e578063d4f50f981461027c578063ee74c678146102ac578063f2fde38b146102b6578063f4ab9adf146102d257610121565b8063a2788cce146101f2578063a7bfab1614610222578063bdc014311461022c578063c7038a4e1461024a578063c88af42f1461025457610121565b806362564c48116100f457806362564c4814610172578063715018a61461019057806388e1c7391461019a5780638da5cb5b146101b6578063a1edffa2146101d457610121565b8063230796ae146101265780632fdae3c514610142578063329a8cfa1461015e578063378a217814610168575b600080fd5b610140600480360381019061013b919061206a565b6102ee565b005b61015c600480360381019061015791906121dd565b6105e9565b005b610166610884565b005b610170610aef565b005b61017a610ced565b60405161018791906123bc565b60405180910390f35b610198610e77565b005b6101b460048036038101906101af919061243c565b610eff565b005b6101be6110e5565b6040516101cb9190612478565b60405180910390f35b6101dc61110e565b6040516101e9919061250a565b60405180910390f35b61020c6004803603810190610207919061206a565b611121565b6040516102199190612562565b60405180910390f35b61022a611288565b005b6102346113e1565b60405161024191906125a0565b60405180910390f35b6102526113f4565b005b61025c61154e565b005b6102666116a8565b6040516102739190612679565b60405180910390f35b6102966004803603810190610291919061243c565b6117c5565b6040516102a391906126f8565b60405180910390f35b6102b46118ed565b005b6102d060048036038101906102cb919061243c565b611a47565b005b6102ec60048036038101906102e7919061243c565b611b3e565b005b600360003373ffffffffffffffffffffffffffffffffffffffff1673ffffffffffffffffffffffffffffffffffffffff16815260200190815260200160002060000160009054906101000a900460ff1661037d576040517f08c379a000000000000000000000000000000000000000000000000000000000815260040161037490612770565b60405180910390fd5b6003600581111561039157610390612493565b5b600460009054906101000a900460ff1660058111156103b3576103b2612493565b5b146103f3576040517f08c379a00000000000000000000000000000000000000000000000000000000081526004016103ea90612802565b60405180910390fd5b60011515600360003373ffffffffffffffffffffffffffffffffffffffff1673ffffffffffffffffffffffffffffffffffffffff16815260200190815260200160002060000160019054906101000a900460ff16151503610489576040517f08c379a00000000000000000000000000000000000000000000000000000000081526004016104809061286e565b60405180910390fd5b60018054905081106104d0576040517f08c379a00000000000000000000000000000000000000000000000000000000081526004016104c7906128da565b60405180910390fd5b80600360003373ffffffffffffffffffffffffffffffffffffffff1673ffffffffffffffffffffffffffffffffffffffff168152602001908152602001600020600101819055506001600360003373ffffffffffffffffffffffffffffffffffffffff1673ffffffffffffffffffffffffffffffffffffffff16815260200190815260200160002060000160016101000a81548160ff02191690831515021790555060018181548110610586576105856128fa565b5b906000526020600020906002020160010160008154809291906105a890612958565b91905055507f4d99b957a2bc29a30ebd96a7be8e68fe50a3c701db28a91436490b7d53870ca433826040516105de9291906129af565b60405180910390a150565b600360003373ffffffffffffffffffffffffffffffffffffffff1673ffffffffffffffffffffffffffffffffffffffff16815260200190815260200160002060000160009054906101000a900460ff16610678576040517f08c379a000000000000000000000000000000000000000000000000000000000815260040161066f90612770565b60405180910390fd5b6001600581111561068c5761068b612493565b5b600460009054906101000a900460ff1660058111156106ae576106ad612493565b5b146106ee576040517f08c379a00000000000000000000000000000000000000000000000000000000081526004016106e590612a24565b60405180910390fd5b6040516020016106fd90612a6a565b60405160208183030381529060405280519060200120816040516020016107249190612ac3565b604051602081830303815290604052805190602001200361077a576040517f08c379a000000000000000000000000000000000000000000000000000000000815260040161077190612b31565b60405180910390fd5b600060159054906101000a900460ff1660ff16600180549050106107d3576040517f08c379a00000000000000000000000000000000000000000000000000000000081526004016107ca90612bc3565b60405180910390fd5b6107db611e8a565b8181600001819052506001819080600181540180825580915050600190039060005260206000209060020201600090919091909150600082015181600001908051906020019061082c929190611ea4565b506020820151816001015550507f92e393e9b54e2f801d3ea4beb0c5e71a21cc34a5d34b77d0fb8a3aa1650dc18f6001808054905061086b9190612be3565b6040516108789190612c17565b60405180910390a15050565b61088c611dbe565b73ffffffffffffffffffffffffffffffffffffffff166108aa6110e5565b73ffffffffffffffffffffffffffffffffffffffff1614610900576040517f08c379a00000000000000000000000000000000000000000000000000000000081526004016108f790612c7e565b60405180910390fd5b60058081111561091357610912612493565b5b600460009054906101000a900460ff16600581111561093557610934612493565b5b14610975576040517f08c379a000000000000000000000000000000000000000000000000000000000815260040161096c90612cea565b60405180910390fd5b60005b600280549050811015610a4857600360006002838154811061099d5761099c6128fa565b5b9060005260206000200160009054906101000a900473ffffffffffffffffffffffffffffffffffffffff1673ffffffffffffffffffffffffffffffffffffffff1673ffffffffffffffffffffffffffffffffffffffff168152602001908152602001600020600080820160006101000a81549060ff02191690556000820160016101000a81549060ff0219169055600182016000905550508080610a4090612958565b915050610978565b5060026000610a579190611f2a565b60016000610a659190611f4b565b60008060146101000a81548160ff021916908360ff1602179055506000600460006101000a81548160ff02191690836005811115610aa657610aa5612493565b5b0217905550610ab433611b3e565b7f12687eba9406e7a8de7da7479a347f886082988951131e2f5e328211b33ca05e4243604051610ae5929190612d0a565b60405180910390a1565b610af7611dbe565b73ffffffffffffffffffffffffffffffffffffffff16610b156110e5565b73ffffffffffffffffffffffffffffffffffffffff1614610b6b576040517f08c379a0000000000000000000000000000000000000000000000000000000008152600401610b6290612c7e565b60405180910390fd5b60046005811115610b7f57610b7e612493565b5b600460009054906101000a900460ff166005811115610ba157610ba0612493565b5b14610be1576040517f08c379a0000000000000000000000000000000000000000000000000000000008152600401610bd890612da5565b60405180910390fd5b600080600090505b6001805490508160ff161015610c685760018260ff1681548110610c1057610c0f6128fa565b5b90600052602060002090600202016001015460018260ff1681548110610c3957610c386128fa565b5b9060005260206000209060020201600101541115610c55578091505b8080610c6090612dc5565b915050610be9565b5080600060146101000a81548160ff021916908360ff1602179055506005600460006101000a81548160ff02191690836005811115610caa57610ca9612493565b5b02179055507f0a97a4ee45751e2abf3e4fc8946939630b11b371ea8ae39ccdc3056e98f5cc3f60046005604051610ce2929190612dee565b60405180910390a150565b6060600360003373ffffffffffffffffffffffffffffffffffffffff1673ffffffffffffffffffffffffffffffffffffffff16815260200190815260200160002060000160009054906101000a900460ff16610d7e576040517f08c379a0000000000000000000000000000000000000000000000000000000008152600401610d7590612770565b60405180910390fd5b6001805480602002602001604051908101604052809291908181526020016000905b82821015610e6e5783829060005260206000209060020201604051806040016040529081600082018054610dd390612e46565b80601f0160208091040260200160405190810160405280929190818152602001828054610dff90612e46565b8015610e4c5780601f10610e2157610100808354040283529160200191610e4c565b820191906000526020600020905b815481529060010190602001808311610e2f57829003601f168201915b5050505050815260200160018201548152505081526020019060010190610da0565b50505050905090565b610e7f611dbe565b73ffffffffffffffffffffffffffffffffffffffff16610e9d6110e5565b73ffffffffffffffffffffffffffffffffffffffff1614610ef3576040517f08c379a0000000000000000000000000000000000000000000000000000000008152600401610eea90612c7e565b60405180910390fd5b610efd6000611dc6565b565b610f07611dbe565b73ffffffffffffffffffffffffffffffffffffffff16610f256110e5565b73ffffffffffffffffffffffffffffffffffffffff1614610f7b576040517f08c379a0000000000000000000000000000000000000000000000000000000008152600401610f7290612c7e565b60405180910390fd5b60006005811115610f8f57610f8e612493565b5b600460009054906101000a900460ff166005811115610fb157610fb0612493565b5b14610ff1576040517f08c379a0000000000000000000000000000000000000000000000000000000008152600401610fe890612ee9565b60405180910390fd5b60011515600360008373ffffffffffffffffffffffffffffffffffffffff1673ffffffffffffffffffffffffffffffffffffffff16815260200190815260200160002060000160009054906101000a900460ff16151514611087576040517f08c379a000000000000000000000000000000000000000000000000000000000815260040161107e90612f55565b60405180910390fd5b6000600360008373ffffffffffffffffffffffffffffffffffffffff1673ffffffffffffffffffffffffffffffffffffffff16815260200190815260200160002060000160006101000a81548160ff02191690831515021790555050565b60008060009054906101000a900473ffffffffffffffffffffffffffffffffffffffff16905090565b600460009054906101000a900460ff1681565b611129611e8a565b600360003373ffffffffffffffffffffffffffffffffffffffff1673ffffffffffffffffffffffffffffffffffffffff16815260200190815260200160002060000160009054906101000a900460ff166111b8576040517f08c379a00000000000000000000000000000000000000000000000000000000081526004016111af90612770565b60405180910390fd5b600182815481106111cc576111cb6128fa565b5b90600052602060002090600202016040518060400160405290816000820180546111f590612e46565b80601f016020809104026020016040519081016040528092919081815260200182805461122190612e46565b801561126e5780601f106112435761010080835404028352916020019161126e565b820191906000526020600020905b81548152906001019060200180831161125157829003601f168201915b505050505081526020016001820154815250509050919050565b611290611dbe565b73ffffffffffffffffffffffffffffffffffffffff166112ae6110e5565b73ffffffffffffffffffffffffffffffffffffffff1614611304576040517f08c379a00000000000000000000000000000000000000000000000000000000081526004016112fb90612c7e565b60405180910390fd5b6003600581111561131857611317612493565b5b600460009054906101000a900460ff16600581111561133a57611339612493565b5b1461137a576040517f08c379a000000000000000000000000000000000000000000000000000000000815260040161137190612802565b60405180910390fd5b60048060006101000a81548160ff0219169083600581111561139f5761139e612493565b5b02179055507f0a97a4ee45751e2abf3e4fc8946939630b11b371ea8ae39ccdc3056e98f5cc3f600360046040516113d7929190612dee565b60405180910390a1565b600060149054906101000a900460ff1681565b6113fc611dbe565b73ffffffffffffffffffffffffffffffffffffffff1661141a6110e5565b73ffffffffffffffffffffffffffffffffffffffff1614611470576040517f08c379a000000000000000000000000000000000000000000000000000000000815260040161146790612c7e565b60405180910390fd5b6000600581111561148457611483612493565b5b600460009054906101000a900460ff1660058111156114a6576114a5612493565b5b146114e6576040517f08c379a00000000000000000000000000000000000000000000000000000000081526004016114dd90612fe7565b60405180910390fd5b6001600460006101000a81548160ff0219169083600581111561150c5761150b612493565b5b02179055507f0a97a4ee45751e2abf3e4fc8946939630b11b371ea8ae39ccdc3056e98f5cc3f60006001604051611544929190612dee565b60405180910390a1565b611556611dbe565b73ffffffffffffffffffffffffffffffffffffffff166115746110e5565b73ffffffffffffffffffffffffffffffffffffffff16146115ca576040517f08c379a00000000000000000000000000000000000000000000000000000000081526004016115c190612c7e565b60405180910390fd5b600160058111156115de576115dd612493565b5b600460009054906101000a900460ff166005811115611600576115ff612493565b5b14611640576040517f08c379a000000000000000000000000000000000000000000000000000000000815260040161163790613079565b60405180910390fd5b6002600460006101000a81548160ff0219169083600581111561166657611665612493565b5b02179055507f0a97a4ee45751e2abf3e4fc8946939630b11b371ea8ae39ccdc3056e98f5cc3f6001600260405161169e929190612dee565b60405180910390a1565b6060600360003373ffffffffffffffffffffffffffffffffffffffff1673ffffffffffffffffffffffffffffffffffffffff16815260200190815260200160002060000160009054906101000a900460ff16611739576040517f08c379a000000000000000000000000000000000000000000000000000000000815260040161173090612770565b60405180910390fd5b60028054806020026020016040519081016040528092919081815260200182805480156117bb57602002820191906000526020600020905b8160009054906101000a900473ffffffffffffffffffffffffffffffffffffffff1673ffffffffffffffffffffffffffffffffffffffff1681526020019060010190808311611771575b5050505050905090565b6117cd611f6f565b600360003373ffffffffffffffffffffffffffffffffffffffff1673ffffffffffffffffffffffffffffffffffffffff16815260200190815260200160002060000160009054906101000a900460ff1661185c576040517f08c379a000000000000000000000000000000000000000000000000000000000815260040161185390612770565b60405180910390fd5b600360008373ffffffffffffffffffffffffffffffffffffffff1673ffffffffffffffffffffffffffffffffffffffff1681526020019081526020016000206040518060600160405290816000820160009054906101000a900460ff161515151581526020016000820160019054906101000a900460ff161515151581526020016001820154815250509050919050565b6118f5611dbe565b73ffffffffffffffffffffffffffffffffffffffff166119136110e5565b73ffffffffffffffffffffffffffffffffffffffff1614611969576040517f08c379a000000000000000000000000000000000000000000000000000000000815260040161196090612c7e565b60405180910390fd5b6002600581111561197d5761197c612493565b5b600460009054906101000a900460ff16600581111561199f5761199e612493565b5b146119df576040517f08c379a00000000000000000000000000000000000000000000000000000000081526004016119d69061310b565b60405180910390fd5b6003600460006101000a81548160ff02191690836005811115611a0557611a04612493565b5b02179055507f0a97a4ee45751e2abf3e4fc8946939630b11b371ea8ae39ccdc3056e98f5cc3f60026003604051611a3d929190612dee565b60405180910390a1565b611a4f611dbe565b73ffffffffffffffffffffffffffffffffffffffff16611a6d6110e5565b73ffffffffffffffffffffffffffffffffffffffff1614611ac3576040517f08c379a0000000000000000000000000000000000000000000000000000000008152600401611aba90612c7e565b60405180910390fd5b600073ffffffffffffffffffffffffffffffffffffffff168173ffffffffffffffffffffffffffffffffffffffff1603611b32576040517f08c379a0000000000000000000000000000000000000000000000000000000008152600401611b299061319d565b60405180910390fd5b611b3b81611dc6565b50565b611b46611dbe565b73ffffffffffffffffffffffffffffffffffffffff16611b646110e5565b73ffffffffffffffffffffffffffffffffffffffff1614611bba576040517f08c379a0000000000000000000000000000000000000000000000000000000008152600401611bb190612c7e565b60405180910390fd5b60006005811115611bce57611bcd612493565b5b600460009054906101000a900460ff166005811115611bf057611bef612493565b5b14611c30576040517f08c379a0000000000000000000000000000000000000000000000000000000008152600401611c2790612ee9565b60405180910390fd5b60011515600360008373ffffffffffffffffffffffffffffffffffffffff1673ffffffffffffffffffffffffffffffffffffffff16815260200190815260200160002060000160009054906101000a900460ff16151503611cc6576040517f08c379a0000000000000000000000000000000000000000000000000000000008152600401611cbd90613209565b60405180910390fd5b6001600360008373ffffffffffffffffffffffffffffffffffffffff1673ffffffffffffffffffffffffffffffffffffffff16815260200190815260200160002060000160006101000a81548160ff0219169083151502179055506002819080600181540180825580915050600190039060005260206000200160009091909190916101000a81548173ffffffffffffffffffffffffffffffffffffffff021916908373ffffffffffffffffffffffffffffffffffffffff1602179055507fb6be2187d059cc2a55fe29e0e503b566e1e0f8c8780096e185429350acffd3dd81604051611db39190612478565b60405180910390a150565b600033905090565b60008060009054906101000a900473ffffffffffffffffffffffffffffffffffffffff169050816000806101000a81548173ffffffffffffffffffffffffffffffffffffffff021916908373ffffffffffffffffffffffffffffffffffffffff1602179055508173ffffffffffffffffffffffffffffffffffffffff168173ffffffffffffffffffffffffffffffffffffffff167f8be0079c531659141344cd1fd0a4f28419497f9722a3daafe3b4186f6b6457e060405160405180910390a35050565b604051806040016040528060608152602001600081525090565b828054611eb090612e46565b90600052602060002090601f016020900481019282611ed25760008555611f19565b82601f10611eeb57805160ff1916838001178555611f19565b82800160010185558215611f19579182015b82811115611f18578251825591602001919060010190611efd565b5b509050611f269190611f94565b5090565b5080546000825590600052602060002090810190611f489190611f94565b50565b5080546000825560020290600052602060002090810190611f6c9190611fb1565b50565b6040518060600160405280600015158152602001600015158152602001600081525090565b5b80821115611fad576000816000905550600101611f95565b5090565b5b80821115611fdc5760008082016000611fcb9190611fe0565b600182016000905550600201611fb2565b5090565b508054611fec90612e46565b6000825580601f10611ffe575061201d565b601f01602090049060005260206000209081019061201c9190611f94565b5b50565b6000604051905090565b600080fd5b600080fd5b6000819050919050565b61204781612034565b811461205257600080fd5b50565b6000813590506120648161203e565b92915050565b6000602082840312156120805761207f61202a565b5b600061208e84828501612055565b91505092915050565b600080fd5b600080fd5b6000601f19601f8301169050919050565b7f4e487b7100000000000000000000000000000000000000000000000000000000600052604160045260246000fd5b6120ea826120a1565b810181811067ffffffffffffffff82111715612109576121086120b2565b5b80604052505050565b600061211c612020565b905061212882826120e1565b919050565b600067ffffffffffffffff821115612148576121476120b2565b5b612151826120a1565b9050602081019050919050565b82818337600083830152505050565b600061218061217b8461212d565b612112565b90508281526020810184848401111561219c5761219b61209c565b5b6121a784828561215e565b509392505050565b600082601f8301126121c4576121c3612097565b5b81356121d484826020860161216d565b91505092915050565b6000602082840312156121f3576121f261202a565b5b600082013567ffffffffffffffff8111156122115761221061202f565b5b61221d848285016121af565b91505092915050565b600081519050919050565b600082825260208201905092915050565b6000819050602082019050919050565b600081519050919050565b600082825260208201905092915050565b60005b8381101561228c578082015181840152602081019050612271565b8381111561229b576000848401525b50505050565b60006122ac82612252565b6122b6818561225d565b93506122c681856020860161226e565b6122cf816120a1565b840191505092915050565b6122e381612034565b82525050565b6000604083016000830151848203600086015261230682826122a1565b915050602083015161231b60208601826122da565b508091505092915050565b600061233283836122e9565b905092915050565b6000602082019050919050565b600061235282612226565b61235c8185612231565b93508360208202850161236e85612242565b8060005b858110156123aa578484038952815161238b8582612326565b94506123968361233a565b925060208a01995050600181019050612372565b50829750879550505050505092915050565b600060208201905081810360008301526123d68184612347565b905092915050565b600073ffffffffffffffffffffffffffffffffffffffff82169050919050565b6000612409826123de565b9050919050565b612419816123fe565b811461242457600080fd5b50565b60008135905061243681612410565b92915050565b6000602082840312156124525761245161202a565b5b600061246084828501612427565b91505092915050565b612472816123fe565b82525050565b600060208201905061248d6000830184612469565b92915050565b7f4e487b7100000000000000000000000000000000000000000000000000000000600052602160045260246000fd5b600681106124d3576124d2612493565b5b50565b60008190506124e4826124c2565b919050565b60006124f4826124d6565b9050919050565b612504816124e9565b82525050565b600060208201905061251f60008301846124fb565b92915050565b6000604083016000830151848203600086015261254282826122a1565b915050602083015161255760208601826122da565b508091505092915050565b6000602082019050818103600083015261257c8184612525565b905092915050565b600060ff82169050919050565b61259a81612584565b82525050565b60006020820190506125b56000830184612591565b92915050565b600081519050919050565b600082825260208201905092915050565b6000819050602082019050919050565b6125f0816123fe565b82525050565b600061260283836125e7565b60208301905092915050565b6000602082019050919050565b6000612626826125bb565b61263081856125c6565b935061263b836125d7565b8060005b8381101561266c57815161265388826125f6565b975061265e8361260e565b92505060018101905061263f565b5085935050505092915050565b60006020820190508181036000830152612693818461261b565b905092915050565b60008115159050919050565b6126b08161269b565b82525050565b6060820160008201516126cc60008501826126a7565b5060208201516126df60208501826126a7565b5060408201516126f260408501826122da565b50505050565b600060608201905061270d60008301846126b6565b92915050565b600082825260208201905092915050565b7f596f75277265206e6f74206120766f7465720000000000000000000000000000600082015250565b600061275a601283612713565b915061276582612724565b602082019050919050565b600060208201905081810360008301526127898161274d565b9050919050565b7f566f74696e672073657373696f6e20686176656e74207374617274656420796560008201527f7400000000000000000000000000000000000000000000000000000000000000602082015250565b60006127ec602183612713565b91506127f782612790565b604082019050919050565b6000602082019050818103600083015261281b816127df565b9050919050565b7f596f75206861766520616c726561647920766f74656400000000000000000000600082015250565b6000612858601683612713565b915061286382612822565b602082019050919050565b600060208201905081810360008301526128878161284b565b9050919050565b7f50726f706f73616c206e6f7420666f756e640000000000000000000000000000600082015250565b60006128c4601283612713565b91506128cf8261288e565b602082019050919050565b600060208201905081810360008301526128f3816128b7565b9050919050565b7f4e487b7100000000000000000000000000000000000000000000000000000000600052603260045260246000fd5b7f4e487b7100000000000000000000000000000000000000000000000000000000600052601160045260246000fd5b600061296382612034565b91507fffffffffffffffffffffffffffffffffffffffffffffffffffffffffffffffff820361299557612994612929565b5b600182019050919050565b6129a981612034565b82525050565b60006040820190506129c46000830185612469565b6129d160208301846129a0565b9392505050565b7f50726f706f73616c7320617265206e6f7420616c6c6f77656420796574000000600082015250565b6000612a0e601d83612713565b9150612a19826129d8565b602082019050919050565b60006020820190508181036000830152612a3d81612a01565b9050919050565b50565b6000612a54600083612713565b9150612a5f82612a44565b600082019050919050565b60006020820190508181036000830152612a8381612a47565b9050919050565b6000612a9582612252565b612a9f8185612713565b9350612aaf81856020860161226e565b612ab8816120a1565b840191505092915050565b60006020820190508181036000830152612add8184612a8a565b905092915050565b7f596f752063616e6e6f742061646420616e20656d7074792070726f706f73616c600082015250565b6000612b1b602083612713565b9150612b2682612ae5565b602082019050919050565b60006020820190508181036000830152612b4a81612b0e565b9050919050565b7f4f6e6c792035302070726f706f73616c7320616c6c6f77656420666f7220746860008201527f69732073657373696f6e00000000000000000000000000000000000000000000602082015250565b6000612bad602a83612713565b9150612bb882612b51565b604082019050919050565b60006020820190508181036000830152612bdc81612ba0565b9050919050565b6000612bee82612034565b9150612bf983612034565b925082821015612c0c57612c0b612929565b5b828203905092915050565b6000602082019050612c2c60008301846129a0565b92915050565b7f4f776e61626c653a2063616c6c6572206973206e6f7420746865206f776e6572600082015250565b6000612c68602083612713565b9150612c7382612c32565b602082019050919050565b60006020820190508181036000830152612c9781612c5b565b9050919050565b7f566f746573206e6f742074616c6c696564000000000000000000000000000000600082015250565b6000612cd4601183612713565b9150612cdf82612c9e565b602082019050919050565b60006020820190508181036000830152612d0381612cc7565b9050919050565b6000604082019050612d1f60008301856129a0565b612d2c60208301846129a0565b9392505050565b7f43757272656e7420737461747573206973206e6f7420766f74696e672073657360008201527f73696f6e20656e64656400000000000000000000000000000000000000000000602082015250565b6000612d8f602a83612713565b9150612d9a82612d33565b604082019050919050565b60006020820190508181036000830152612dbe81612d82565b9050919050565b6000612dd082612584565b915060ff8203612de357612de2612929565b5b600182019050919050565b6000604082019050612e0360008301856124fb565b612e1060208301846124fb565b9392505050565b7f4e487b7100000000000000000000000000000000000000000000000000000000600052602260045260246000fd5b60006002820490506001821680612e5e57607f821691505b602082108103612e7157612e70612e17565b5b50919050565b7f566f7465727320726567697374726174696f6e206973206e6f74206f70656e2060008201527f7965740000000000000000000000000000000000000000000000000000000000602082015250565b6000612ed3602383612713565b9150612ede82612e77565b604082019050919050565b60006020820190508181036000830152612f0281612ec6565b9050919050565b7f4e6f742072656769737465726564000000000000000000000000000000000000600082015250565b6000612f3f600e83612713565b9150612f4a82612f09565b602082019050919050565b60006020820190508181036000830152612f6e81612f32565b9050919050565b7f5265676973746572696e672070726f706f73616c732063616e7420626520737460008201527f6172746564206e6f770000000000000000000000000000000000000000000000602082015250565b6000612fd1602983612713565b9150612fdc82612f75565b604082019050919050565b6000602082019050818103600083015261300081612fc4565b9050919050565b7f5265676973746572696e672070726f706f73616c7320686176656e742073746160008201527f7274656420796574000000000000000000000000000000000000000000000000602082015250565b6000613063602883612713565b915061306e82613007565b604082019050919050565b6000602082019050818103600083015261309281613056565b9050919050565b7f5265676973746572696e672070726f706f73616c73207068617365206973206e60008201527f6f742066696e6973686564000000000000000000000000000000000000000000602082015250565b60006130f5602b83612713565b915061310082613099565b604082019050919050565b60006020820190508181036000830152613124816130e8565b9050919050565b7f4f776e61626c653a206e6577206f776e657220697320746865207a65726f206160008201527f6464726573730000000000000000000000000000000000000000000000000000602082015250565b6000613187602683612713565b91506131928261312b565b604082019050919050565b600060208201905081810360008301526131b68161317a565b9050919050565b7f416c726561647920726567697374657265640000000000000000000000000000600082015250565b60006131f3601283612713565b91506131fe826131bd565b602082019050919050565b60006020820190508181036000830152613222816131e6565b905091905056fea264697066735822122063d530c70a7ea65845d77f8c1c098255404b39a9de0eb9be5a8c14712b8f9d0d64736f6c634300080d0033",
  "immutableReferences": {},
  "source": "// SPDX-License-Identifier: MIT\n\npragma solidity 0.8.13;\n\nimport \"@openzeppelin/contracts/access/Ownable.sol\";\n\n/**\n * @title Voting smart contract\n *\n * @author Jonacity\n *\n * @dev A simple voting system\n */\ncontract Voting is Ownable {\n\n    struct Voter {\n        bool isRegistered;\n        bool hasVoted;\n        uint votedProposalId;\n    }\n    struct Proposal {\n        string description;\n        uint voteCount;\n    }\n    enum WorkflowStatus {\n        RegisteringVoters,\n        ProposalsRegistrationStarted,\n        ProposalsRegistrationEnded,\n        VotingSessionStarted,\n        VotingSessionEnded,\n        VotesTallied\n    }\n\n    uint8 public winningProposalID;\n    uint8 maxProposals = 50;\n    Proposal[] proposalsArray;\n    address[] votersArray;\n    mapping (address => Voter) voters;\n    WorkflowStatus public workflowStatus;\n\n    event VoterRegistered(address voterAddress);\n    event ProposalRegistered(uint proposalId);\n    event Voted (address voter, uint proposalId);\n    event ResetVote(uint date, uint blockNumber);\n    event WorkflowStatusChange(WorkflowStatus previousStatus, WorkflowStatus newStatus);\n\n    /**\n     * @dev Constructor: the contract owner is added as voter\n     */\n    constructor() {\n        addVoter(msg.sender);\n    }\n\n    /**\n     * @dev Check if the sender is a registered voter\n     */\n    modifier onlyVoters() {\n        require(voters[msg.sender].isRegistered, \"You're not a voter\");\n        _;\n    }\n\n    /**\n     * @dev Get a voter from an address\n     *\n     * @param _addr Address of the user\n     *\n     * @return Voter Voter details\n     */\n    function getVoter(address _addr) external onlyVoters view returns (Voter memory) {\n        return voters[_addr];\n    }\n\n    /**\n     * @dev Get a proposal from an id\n     *\n     * @param _id Proposal id\n     *\n     * @return Proposal Proposal details\n     */\n    function getOneProposal(uint _id) external onlyVoters view returns (Proposal memory) {\n        return proposalsArray[_id];\n    }\n\n    /**\n     * @dev Get all proposals\n     *\n     * @return Proposal[] Added proposals list\n     */\n    function getProposals() external onlyVoters view returns (Proposal[] memory) {\n        return proposalsArray;\n    }\n\n    /**\n     * @dev Get all voters addresses\n     *\n     * @return address[] Registered voters addresses\n     */\n    function getVoters() external onlyVoters view returns (address[] memory) {\n        return votersArray;\n    }\n\n    /**\n     * @dev Register a voter and add his address into the votersArray\n     *\n     * @param _addr Voter address\n     */\n    function addVoter(address _addr) public onlyOwner {\n        require(workflowStatus == WorkflowStatus.RegisteringVoters, \"Voters registration is not open yet\");\n        require(voters[_addr].isRegistered != true, \"Already registered\");\n\n        voters[_addr].isRegistered = true;\n        votersArray.push(_addr);\n        emit VoterRegistered(_addr);\n    }\n\n     /**\n     * @dev Delete a voter\n     *\n     * @param _addr Voter address\n     */\n    function deleteVoter(address _addr) external onlyOwner {\n        require(workflowStatus == WorkflowStatus.RegisteringVoters, \"Voters registration is not open yet\");\n        require(voters[_addr].isRegistered == true, \"Not registered\");\n\n        voters[_addr].isRegistered = false;\n    }\n\n    /**\n     * @dev Create a proposal\n     *\n     * @param _desc Proposal description\n     */\n    function addProposal(string memory _desc) external onlyVoters {\n        require(workflowStatus == WorkflowStatus.ProposalsRegistrationStarted, \"Proposals are not allowed yet\");\n        require(keccak256(abi.encode(_desc)) != keccak256(abi.encode(\"\")), \"You cannot add an empty proposal\");\n        require(proposalsArray.length < maxProposals, \"Only 50 proposals allowed for this session\");\n\n        Proposal memory proposal;\n        proposal.description = _desc;\n        proposalsArray.push(proposal);\n        emit ProposalRegistered(proposalsArray.length-1);\n    }\n\n    /**\n     * @dev Vote to a proposal\n     *\n     * @param _id Proposal id\n     */\n    function setVote( uint _id) external onlyVoters {\n        require(workflowStatus == WorkflowStatus.VotingSessionStarted, \"Voting session havent started yet\");\n        require(voters[msg.sender].hasVoted != true, \"You have already voted\");\n        require(_id < proposalsArray.length, \"Proposal not found\");\n\n        voters[msg.sender].votedProposalId = _id;\n        voters[msg.sender].hasVoted = true;\n        proposalsArray[_id].voteCount++;\n        emit Voted(msg.sender, _id);\n    }\n\n    /**\n     * @dev Start the proposals registering\n     */\n    function startProposalsRegistering() external onlyOwner {\n        require(workflowStatus == WorkflowStatus.RegisteringVoters, \"Registering proposals cant be started now\");\n\n        workflowStatus = WorkflowStatus.ProposalsRegistrationStarted;\n        emit WorkflowStatusChange(WorkflowStatus.RegisteringVoters, WorkflowStatus.ProposalsRegistrationStarted);\n    }\n\n    /**\n     * @dev End the proposals registering\n     */\n    function endProposalsRegistering() external onlyOwner {\n        require(workflowStatus == WorkflowStatus.ProposalsRegistrationStarted, \"Registering proposals havent started yet\");\n\n        workflowStatus = WorkflowStatus.ProposalsRegistrationEnded;\n        emit WorkflowStatusChange(WorkflowStatus.ProposalsRegistrationStarted, WorkflowStatus.ProposalsRegistrationEnded);\n    }\n\n    /**\n     * @dev Start the voting session\n     */\n    function startVotingSession() external onlyOwner {\n        require(workflowStatus == WorkflowStatus.ProposalsRegistrationEnded, \"Registering proposals phase is not finished\");\n\n        workflowStatus = WorkflowStatus.VotingSessionStarted;\n        emit WorkflowStatusChange(WorkflowStatus.ProposalsRegistrationEnded, WorkflowStatus.VotingSessionStarted);\n    }\n\n    /**\n     * @dev End the voting session\n     */\n    function endVotingSession() external onlyOwner {\n        require(workflowStatus == WorkflowStatus.VotingSessionStarted, \"Voting session havent started yet\");\n\n        workflowStatus = WorkflowStatus.VotingSessionEnded;\n        emit WorkflowStatusChange(WorkflowStatus.VotingSessionStarted, WorkflowStatus.VotingSessionEnded);\n    }\n\n    /**\n     * @dev Tally the votes and set the proposal winner (winningProposalId)\n     */\n    function tallyVotes() external onlyOwner {\n            require(workflowStatus == WorkflowStatus.VotingSessionEnded, \"Current status is not voting session ended\");\n\n            uint8 _winningProposalId;\n            for (uint8 p = 0; p < proposalsArray.length; p++) {\n                if (proposalsArray[p].voteCount > proposalsArray[_winningProposalId].voteCount) {\n                    _winningProposalId = p;\n                }\n            }\n            winningProposalID = _winningProposalId;\n            workflowStatus = WorkflowStatus.VotesTallied;\n            emit WorkflowStatusChange(WorkflowStatus.VotingSessionEnded, WorkflowStatus.VotesTallied);\n        }\n\n    /**\n     * @dev Reset the voting system restoring all variables to initial values\n     */\n    function resetVote() public onlyOwner {\n        require(workflowStatus == WorkflowStatus.VotesTallied, \"Votes not tallied\");\n\n        for (uint n = 0; n < votersArray.length; n ++) {\n            delete voters[votersArray[n]];\n        }\n        delete votersArray;\n        delete proposalsArray;\n        winningProposalID = 0;\n        workflowStatus = WorkflowStatus.RegisteringVoters;\n        addVoter(msg.sender);\n        emit ResetVote(block.timestamp, block.number);\n    }\n\n}\n",
  "sourcePath": "/Users/aline/alyra/truffle-react-voting/contracts/Voting.sol",
  "compiler": {
    "name": "solc",
    "version": "0.8.13+commit.abaa5c0e.Emscripten.clang"
  },
  "schemaVersion": "3.4.6",
  "updatedAt": "2022-04-24T19:17:15.412Z",
  "networkType": "ethereum",
  "devdoc": {
    "author": "Jonacity",
    "details": "A simple voting system",
    "kind": "dev",
    "methods": {
      "addProposal(string)": {
        "details": "Create a proposal",
        "params": {
          "_desc": "Proposal description"
        }
      },
      "addVoter(address)": {
        "details": "Register a voter and add his address into the votersArray",
        "params": {
          "_addr": "Voter address"
        }
      },
      "constructor": {
        "details": "Constructor: the contract owner is added as voter"
      },
      "deleteVoter(address)": {
        "details": "Delete a voter",
        "params": {
          "_addr": "Voter address"
        }
      },
      "endProposalsRegistering()": {
        "details": "End the proposals registering"
      },
      "endVotingSession()": {
        "details": "End the voting session"
      },
      "getOneProposal(uint256)": {
        "details": "Get a proposal from an id",
        "params": {
          "_id": "Proposal id"
        },
        "returns": {
          "_0": "Proposal Proposal details"
        }
      },
      "getProposals()": {
        "details": "Get all proposals",
        "returns": {
          "_0": "Proposal[] Added proposals list"
        }
      },
      "getVoter(address)": {
        "details": "Get a voter from an address",
        "params": {
          "_addr": "Address of the user"
        },
        "returns": {
          "_0": "Voter Voter details"
        }
      },
      "getVoters()": {
        "details": "Get all voters addresses",
        "returns": {
          "_0": "address[] Registered voters addresses"
        }
      },
      "owner()": {
        "details": "Returns the address of the current owner."
      },
      "renounceOwnership()": {
        "details": "Leaves the contract without owner. It will not be possible to call `onlyOwner` functions anymore. Can only be called by the current owner. NOTE: Renouncing ownership will leave the contract without an owner, thereby removing any functionality that is only available to the owner."
      },
      "resetVote()": {
        "details": "Reset the voting system restoring all variables to initial values"
      },
      "setVote(uint256)": {
        "details": "Vote to a proposal",
        "params": {
          "_id": "Proposal id"
        }
      },
      "startProposalsRegistering()": {
        "details": "Start the proposals registering"
      },
      "startVotingSession()": {
        "details": "Start the voting session"
      },
      "tallyVotes()": {
        "details": "Tally the votes and set the proposal winner (winningProposalId)"
      },
      "transferOwnership(address)": {
        "details": "Transfers ownership of the contract to a new account (`newOwner`). Can only be called by the current owner."
      }
    },
    "title": "Voting smart contract",
    "version": 1
  },
  "userdoc": {
    "kind": "user",
    "methods": {},
    "version": 1
  }
}